{
  "contractName": "SupplyChain",
  "abi": [
    {
      "inputs": [],
      "stateMutability": "nonpayable",
      "type": "constructor"
    },
    {
      "anonymous": false,
      "inputs": [
        {
          "indexed": false,
          "internalType": "uint256",
          "name": "sku",
          "type": "uint256"
        }
      ],
      "name": "LogForSale",
      "type": "event"
    },
    {
      "anonymous": false,
      "inputs": [
        {
          "indexed": false,
          "internalType": "uint256",
          "name": "sku",
          "type": "uint256"
        }
      ],
      "name": "LogReceived",
      "type": "event"
    },
    {
      "anonymous": false,
      "inputs": [
        {
          "indexed": false,
          "internalType": "uint256",
          "name": "sku",
          "type": "uint256"
        }
      ],
      "name": "LogShipped",
      "type": "event"
    },
    {
      "anonymous": false,
      "inputs": [
        {
          "indexed": false,
          "internalType": "uint256",
          "name": "sku",
          "type": "uint256"
        }
      ],
      "name": "LogSold",
      "type": "event"
    },
    {
      "inputs": [
        {
          "internalType": "uint256",
          "name": "",
          "type": "uint256"
        }
      ],
      "name": "items",
      "outputs": [
        {
          "internalType": "string",
          "name": "name",
          "type": "string"
        },
        {
          "internalType": "uint256",
          "name": "sku",
          "type": "uint256"
        },
        {
          "internalType": "uint256",
          "name": "price",
          "type": "uint256"
        },
        {
          "internalType": "enum SupplyChain.State",
          "name": "state",
          "type": "uint8"
        },
        {
          "internalType": "address payable",
          "name": "seller",
          "type": "address"
        },
        {
          "internalType": "address payable",
          "name": "buyer",
          "type": "address"
        }
      ],
      "stateMutability": "view",
      "type": "function",
      "constant": true
    },
    {
      "inputs": [
        {
          "internalType": "string",
          "name": "_name",
          "type": "string"
        },
        {
          "internalType": "uint256",
          "name": "_price",
          "type": "uint256"
        }
      ],
      "name": "addItem",
      "outputs": [
        {
          "internalType": "bool",
          "name": "",
          "type": "bool"
        }
      ],
      "stateMutability": "nonpayable",
      "type": "function"
    },
    {
      "inputs": [
        {
          "internalType": "uint256",
          "name": "sku",
          "type": "uint256"
        }
      ],
      "name": "buyItem",
      "outputs": [],
      "stateMutability": "payable",
      "type": "function",
      "payable": true
    },
    {
      "inputs": [
        {
          "internalType": "uint256",
          "name": "sku",
          "type": "uint256"
        }
      ],
      "name": "shipItem",
      "outputs": [],
      "stateMutability": "nonpayable",
      "type": "function"
    },
    {
      "inputs": [
        {
          "internalType": "uint256",
          "name": "sku",
          "type": "uint256"
        }
      ],
      "name": "receiveItem",
      "outputs": [],
      "stateMutability": "nonpayable",
      "type": "function"
    }
  ],
  "bytecode": "0x608060405234801561001057600080fd5b50336000806101000a81548173ffffffffffffffffffffffffffffffffffffffff021916908373ffffffffffffffffffffffffffffffffffffffff1602179055506000600181905550610b2f806100686000396000f3fe60806040526004361061004a5760003560e01c806362d6bbdf1461004f578063a26be99914610137578063bfb231d214610172578063e7fb74c714610280578063f61c899a146102ae575b600080fd5b34801561005b57600080fd5b5061011f6004803603604081101561007257600080fd5b810190808035906020019064010000000081111561008f57600080fd5b8201836020820111156100a157600080fd5b803590602001918460018302840111640100000000831117156100c357600080fd5b91908080601f016020809104026020016040519081016040528093929190818152602001838380828437600081840152601f19601f820116905080830192505050505050509192919290803590602001909291905050506102e9565b60405180821515815260200191505060405180910390f35b34801561014357600080fd5b506101706004803603602081101561015a57600080fd5b81019080803590602001909291905050506104a1565b005b34801561017e57600080fd5b506101ab6004803603602081101561019557600080fd5b81019080803590602001909291905050506105d1565b60405180806020018781526020018681526020018560038111156101cb57fe5b81526020018473ffffffffffffffffffffffffffffffffffffffff1681526020018373ffffffffffffffffffffffffffffffffffffffff168152602001828103825288818151815260200191508051906020019080838360005b83811015610240578082015181840152602081019050610225565b50505050905090810190601f16801561026d5780820380516001836020036101000a031916815260200191505b5097505050505050505060405180910390f35b6102ac6004803603602081101561029657600080fd5b81019080803590602001909291905050506106f2565b005b3480156102ba57600080fd5b506102e7600480360360208110156102d157600080fd5b810190808035906020019092919050505061092c565b005b60007f4627c48065af2a9648cbecdd4b9da340c00e501243cd49a8a71c30c987e8b7616001546040518082815260200191505060405180910390a16040518060c0016040528084815260200160015481526020018381526020016000600381111561035057fe5b81526020013373ffffffffffffffffffffffffffffffffffffffff168152602001600073ffffffffffffffffffffffffffffffffffffffff1681525060026000600154815260200190815260200160002060008201518160000190805190602001906103bd929190610a5c565b50602082015181600101556040820151816002015560608201518160030160006101000a81548160ff021916908360038111156103f657fe5b021790555060808201518160030160016101000a81548173ffffffffffffffffffffffffffffffffffffffff021916908373ffffffffffffffffffffffffffffffffffffffff16021790555060a08201518160040160006101000a81548173ffffffffffffffffffffffffffffffffffffffff021916908373ffffffffffffffffffffffffffffffffffffffff16021790555090505060018054016001819055506001905092915050565b6002600082815260200190815260200160002060030160009054906101000a900460ff16600260038111156104d257fe5b8160038111156104de57fe5b146104e857600080fd5b6002600083815260200190815260200160002060040160009054906101000a900473ffffffffffffffffffffffffffffffffffffffff168073ffffffffffffffffffffffffffffffffffffffff163373ffffffffffffffffffffffffffffffffffffffff161461055757600080fd5b600060026000858152602001908152602001600020905060038160030160006101000a81548160ff0219169083600381111561058f57fe5b02179055507f5a98827d06afe0e04647b3aed26f1ffb77171ad9ac41603c4ef623a6638798c1846040518082815260200191505060405180910390a150505050565b6002602052806000526040600020600091509050806000018054600181600116156101000203166002900480601f01602080910402602001604051908101604052809291908181526020018280546001816001161561010002031660029004801561067d5780601f106106525761010080835404028352916020019161067d565b820191906000526020600020905b81548152906001019060200180831161066057829003601f168201915b5050505050908060010154908060020154908060030160009054906101000a900460ff16908060030160019054906101000a900473ffffffffffffffffffffffffffffffffffffffff16908060040160009054906101000a900473ffffffffffffffffffffffffffffffffffffffff16905086565b6002600082815260200190815260200160002060030160009054906101000a900460ff166000600381111561072357fe5b81600381111561072f57fe5b1461073957600080fd5b60026000838152602001908152602001600020600201548034101561075d57600080fd5b8260006002600086815260200190815260200160002090508060030160019054906101000a900473ffffffffffffffffffffffffffffffffffffffff1673ffffffffffffffffffffffffffffffffffffffff166108fc82600201549081150290604051600060405180830381858888f193505050501580156107e3573d6000803e3d6000fd5b50338160040160006101000a81548173ffffffffffffffffffffffffffffffffffffffff021916908373ffffffffffffffffffffffffffffffffffffffff16021790555060018160030160006101000a81548160ff0219169083600381111561084857fe5b02179055507fe64ca8c671e48636f85f3008c1dd538e36bfa74fb6f2790b56b72fcc33b879ef856040518082815260200191505060405180910390a150600060026000838152602001908152602001600020600201549050600081340390506002600084815260200190815260200160002060040160009054906101000a900473ffffffffffffffffffffffffffffffffffffffff1673ffffffffffffffffffffffffffffffffffffffff166108fc829081150290604051600060405180830381858888f19350505050158015610923573d6000803e3d6000fd5b50505050505050565b6002600082815260200190815260200160002060030160009054906101000a900460ff166001600381111561095d57fe5b81600381111561096957fe5b1461097357600080fd5b6002600083815260200190815260200160002060030160019054906101000a900473ffffffffffffffffffffffffffffffffffffffff168073ffffffffffffffffffffffffffffffffffffffff163373ffffffffffffffffffffffffffffffffffffffff16146109e257600080fd5b600060026000858152602001908152602001600020905060028160030160006101000a81548160ff02191690836003811115610a1a57fe5b02179055507feaf695929fec8154f0eafe7248c0e16855eb9ad09e623be92f669e544d53e856846040518082815260200191505060405180910390a150505050565b828054600181600116156101000203166002900490600052602060002090601f016020900481019282601f10610a9d57805160ff1916838001178555610acb565b82800160010185558215610acb579182015b82811115610aca578251825591602001919060010190610aaf565b5b509050610ad89190610adc565b5090565b5b80821115610af5576000816000905550600101610add565b509056fea264697066735822122040e23493a965ddb6b7004f275afa39b67f725be969ecf49a12e858caaa9241ec64736f6c634300060c0033",
  "immutableReferences": {},
  "source": "/*\n    This exercise has been updated to use Solidity version 0.6\n    Breaking changes from 0.5 to 0.6 can be found here: \n    https://solidity.readthedocs.io/en/v0.6.12/060-breaking-changes.html\n*/\n\npragma solidity >=0.6.0 <0.7.0;\n\ncontract SupplyChain {\n\n  /* set owner */\n  address owner;\n\n  /* Add a variable called skuCount to track the most recent sku # */\n  uint skuCount;\n  \n  /* Add a line that creates a public mapping that maps the SKU (a number) to an Item.\n     Call this mappings items\n  */\n  mapping (uint=>Item) public items;\n\n  /* Add a line that creates an enum called State. This should have 4 states\n    ForSale\n    Sold\n    Shipped\n    Received\n    (declaring them in this order is important for testing)\n  */\n  enum State{\n    ForSale,\n    Sold,\n    Shipped,\n    Received\n  }\n\n  /* Create a struct named Item.\n    Here, add a name, sku, price, state, seller, and buyer\n    We've left you to figure out what the appropriate types are,\n    if you need help you can ask around :)\n    Be sure to add \"payable\" to addresses that will be handling value transfer\n  */\n  struct Item{\n    string name;\n    uint sku;\n    uint price;\n    State state;\n    address payable seller;\n    address payable buyer;\n  }\n\n  /* Create 4 events with the same name as each possible State (see above)\n    Prefix each event with \"Log\" for clarity, so the forSale event will be called \"LogForSale\"\n    Each event should accept one argument, the sku */\n  event LogForSale(uint sku);\n  event LogSold(uint sku);\n  event LogShipped(uint sku);\n  event LogReceived(uint sku);\n/* Create a modifer that checks if the msg.sender is the owner of the contract */\n  modifier checkOwner() { require (msg.sender == owner); _;}\n  modifier verifyCaller (address _address) { require (msg.sender == _address); _;}\n\n  modifier paidEnough(uint _price) { require(msg.value >= _price); _;}\n  modifier checkValue(uint _sku){\n    //refund them after pay for item (why it is before, _ checks for logic before func)\n    _;\n    uint _price = items[_sku].price;\n    uint amountToRefund = msg.value - _price;\n    items[_sku].buyer.transfer(amountToRefund);\n  }\n\n  /* For each of the following modifiers, use what you learned about modifiers\n   to give them functionality. For example, the forSale modifier should require\n   that the item with the given sku has the state ForSale. \n   Note that the uninitialized Item.State is 0, which is also the index of the ForSale value,\n   so checking that Item.State == ForSale is not sufficient to check that an Item is for sale.\n   Hint: What item properties will be non-zero when an Item has been added?\n   \n   PS: Uncomment the modifier but keep the name for testing purposes!\n   */\n  \n  ///modifier forSale\n  modifier forSale(State itemState){\n    require(itemState == State.ForSale);\n    _;\n  }\n  /// modifier sold\n  modifier sold(State itemState){\n    require(itemState == State.Sold);\n    _;\n  }\n  /// modifier shipped\n  modifier shipped(State itemState){\n    require(itemState == State.Shipped);\n    _;\n  }\n  /// modifier received\n  modifier received(State itemState){\n    require(itemState == State.Received);\n    _;\n  }\n\n\n  constructor() public {\n    /* Here, set the owner as the person who instantiated the contract\n       and set your skuCount to 0. */\n       owner = msg.sender;\n       skuCount = 0;\n  }\n\n  function addItem(string memory _name, uint _price) public returns(bool){\n    emit LogForSale(skuCount);\n    items[skuCount] = Item({name: _name, sku: skuCount, price: _price, state: State.ForSale, seller: msg.sender, buyer: address(0)});\n    skuCount = skuCount + 1;\n    return true;\n  }\n\n  /* Add a keyword so the function can be paid. This function should transfer money\n    to the seller, set the buyer as the person who called this transaction, and set the state\n    to Sold. Be careful, this function should use 3 modifiers to check if the item is for sale,\n    if the buyer paid enough, and check the value after the function is called to make sure the buyer is\n    refunded any excess ether sent. Remember to call the event associated with this function!*/\n\n  function buyItem(uint sku)\n    public payable  forSale(items[sku].state) paidEnough(items[sku].price) checkValue(sku) \n  {\n    Item storage SoldItem = items[sku];\n    SoldItem.seller.transfer(SoldItem.price);\n    SoldItem.buyer = msg.sender;\n    SoldItem.state = State.Sold;\n    emit LogSold(sku);\n  }\n\n  /* Add 2 modifiers to check if the item is sold already, and that the person calling this function\n  is the seller. Change the state of the item to shipped. Remember to call the event associated with this function!*/\n  function shipItem(uint sku)\n    public sold(items[sku].state) verifyCaller(items[sku].seller)\n  {\n    Item storage shippedItem = items[sku];\n    shippedItem.state = State.Shipped;\n    emit LogShipped(sku);\n  }\n\n  /* Add 2 modifiers to check if the item is shipped already, and that the person calling this function\n  is the buyer. Change the state of the item to received. Remember to call the event associated with this function!*/\n  function receiveItem(uint sku) shipped(items[sku].state) verifyCaller(items[sku].buyer)\n    public\n  {\n    Item storage receivedItem = items[sku];\n    receivedItem.state = State.Received;\n    emit LogReceived(sku);\n  }\n\n  /* We have these functions completed so we can run tests, just ignore it :) */\n  /*\n  function fetchItem(uint _sku) public view returns (string memory name, uint sku, uint price, uint state, address seller, address buyer) {\n    name = items[_sku].name;\n    sku = items[_sku].sku;\n    price = items[_sku].price;\n    state = uint(items[_sku].state);\n    seller = items[_sku].seller;\n    buyer = items[_sku].buyer;\n    return (name, sku, price, state, seller, buyer);\n  } */\n\n}\n",
  "sourcePath": "/home/fatemeh/Desktop/Consensys Course/supply-chain-exercise-FatemehHeidari/contracts/SupplyChain.sol",
  "compiler": {
    "name": "solc",
    "version": "0.6.12+commit.27d51765.Emscripten.clang"
  },
  "schemaVersion": "3.3.1",
  "updatedAt": "2020-10-28T17:31:56.062Z",
  "networkType": "ethereum",
  "devdoc": {
    "kind": "dev",
    "methods": {},
    "version": 1
  },
  "userdoc": {
    "kind": "user",
    "methods": {},
    "version": 1
  }
}